:100000000C942B010C9453010C9453010C94530148
:100010000C9453010C9453010C9453010C94530110
:100020000C9453010C9453010C9453010C945F0DE8
:100030000C9453010C9453010C9453010C945301F0
:100040000C94910B0C9453010C94010C0C94DB0B4D
:100050000C9453010C9453010C9453010C945301D0
:100060000C94330C0C9453010C9453010C945301D5
:100070000C9453010C9453010C9453010C945301B0
:100080000C9453010C9453010C9453010C945301A0
:100090000C9453010C9453010C9453010C94530190
:1000A0000C9453010C9453010C9453010C94530180
:1000B0000C9453014E414E494E495459494E46CD38
:1000C000CCCC3D0AD7233C17B7D13877CC2B32950F
:1000D00095E6241FB14F0A000020410000C84200ED
:1000E000401C4620BCBE4CCA1B0E5AAEC59D7400B7
:1000F000407A10F35A00A0724E18090010A5D4E8F7
:100100000000E87648170000E40B54020000CA9A89
:100110003B000000E1F505000080969800000040DB
:10012000420F000000A08601000000102700000020
:1001300000E803000000006400000000000A000066
:100140000000000100000000002C76D888DC674F1A
:100150000823DFC1DFAE59E1B1B796E5E3E453C64A
:100160003AE651997696E8E6C28426EB898C9B6242
:10017000ED407C6FFCEFBC9C9F40F2BAA56FA5F4EC
:1001800090055A2AF75C936B6CF9676DC11BFCE014
:10019000E40D47FEF520E6B500D0ED902E03009467
:1001A0003577050080841E080000204E0A000000FC
:1001B000C80C333333330F986E12831141EF8D2106
:1001C00014893BE65516CFFEE6DB18D1844B381B6D
:1001D000F77C1D901DA4BBE424203284725E228132
:1001E00000C9F124ECA1E53D270000000024002710
:1001F000002A002D0000000000250028002B002E02
:1002000000040404040404040402020202020203BF
:1002100003030303030202030505050501020408A5
:100220001020408001020408102001020408102060
:10023000408040010204080A0D0E0900030200007C
:10024000040508000000000000000000000000009D
:1002500000000E0E481811241FBECFEFD8E0DEBFFD
:10026000CDBF25E0A4E7B3E001C01D92A63DB207D3
:10027000E1F713E0A0E0B1E0ECE0F9E402C00590A2
:100280000D92A437B107D9F711E0CAE2D1E004C05A
:100290002197FE010E941B22C932D107C9F70E9493
:1002A000BF0F0C9479240C940000880F8093BA003F
:1002B00008959B01AC0160E072E18AE790E00E9442
:1002C000F921205131094109510956954795379532
:1002D00027952093B8000895882321F085EC80931A
:1002E000BC00089585E8FBCF85ED8093BC0080912C
:1002F000BC0084FDFCCF1092CD03089585EC809363
:10030000BC001092CD030895282F30E0F901E95C7C
:10031000FD4F9491F901E45EFD4F84912F5F3D4FB5
:10032000F9012491222309F42EC09923D9F0925087
:100330009D30C0F4E92FF0E0E056FE4F0C941B22F4
:10034000E601EA01AD01C401B201B201C801CE016A
:10035000D201D801B201DC01E201909180009F77C7
:1003600090938000E22FF0E0EE0FFF1FEB50FE4F66
:10037000A591B4919FB7F894EC9161112EC080952E
:100380008E238C939FBF0895909180009F7DE8CF2E
:100390009091B0009F779093B000E4CF9091B0001F
:1003A0009F7DF9CF909190009F7790939000DACF46
:1003B000909190009F7DF9CF9091A0009F779093AE
:1003C000A000D0CF9091A0009F7DF9CF94B59F77EA
:1003D00094BDC8CF94B59F7DFBCF8E2BD2CF10920A
:1003E000CD0381E08093CF031092CE0361E082E1E0
:1003F0000E94840161E083E10E948401E9EBF0E066
:1004000080818E7F808380818D7F808380E2809356
:10041000B80085E48093BC000895ECEBF0E08081A7
:100420008A7B808360E082E10E94840160E083E156
:100430000C948401CF93DF9390E0FC01E45EFD4FC8
:1004400024918F5F9D4FFC0184918823D1F090E02F
:10045000880F991FFC01E751FE4FA591B491FC0153
:10046000EB50FE4FC591D49161110EC09FB7F89427
:100470008C91E22FE0958E238C932881E223E883F0
:100480009FBFDF91CF9108958FB7F894EC91E22B45
:10049000EC938FBFF6CF000000008330910528F069
:1004A000880F991F05970197F1F708953FB7F894C2
:1004B0008091760490917704A0917804B0917904AA
:1004C00026B5A89B05C02F3F19F00196A11DB11DAF
:1004D0003FBFBA2FA92F982F8827BC01CD01620FEB
:1004E000711D811D911D43E0660F771F881F991FA5
:1004F0004A95D1F708958F929F92AF92BF92CF9273
:10050000DF92EF92FF924B015C010E9456026B0159
:100510007C010E9456026C197D098E099F09683E74
:10052000734081059105A8F321E0821A9108A10882
:10053000B10888EEC80E83E0D81EE11CF11C8114BE
:100540009104A104B10429F7FF90EF90DF90CF90C0
:10055000BF90AF909F908F9008950895AF92BF92F3
:10056000CF92DF92EF92FF920F931F93CF93DF937F
:100570006C017B018B01040F151FEB015E01AE18AE
:10058000BF08C017D10759F06991D601ED91FC91D0
:100590000190F081E02DC6010995892B79F7C501FD
:1005A000DF91CF911F910F91FF90EF90DF90CF904F
:1005B000BF90AF900895FC01538D448D252F30E0FE
:1005C000842F90E0821B930B541710F0CF96089560
:1005D00001970895FC01918D828D981761F0A28D8D
:1005E000AE0FBF2FB11D5D968C91928D9F5F9F7353
:1005F000928F90E008958FEF9FEF08952FB7F894B2
:1006000080911B0590911C05A0911D05B0911E05C0
:100610002FBF8093820490938304A0938404B093AB
:1006200085048AE794E00E94EA0297FF26C02FB76C
:10063000F89480911B0590911C05A0911D05B09127
:100640001E052FBF40918204509183046091840461
:1006500070918504841B950BA60BB70B40917E040B
:1006600050917F04609180047091810484179507F4
:10067000A607B707B0F28FEF9FEF0895FC01918DA9
:10068000828D981731F0828DE80FF11D858D90E0F5
:1006900008958FEF9FEF0895FC01918D228D892F92
:1006A00090E0805C9F4F821B91098F73992708957A
:1006B0008AE794E00E944C0321E0892B09F420E0B2
:1006C000822F0895FC01A48DA80FB92FB11DA35A44
:1006D000BF4F2C91848D90E001968F739927848F62
:1006E000A689B7892C93A089B1898C918370806485
:1006F0008C93938D848D981306C00288F389E02D26
:1007000080818F7D80830895EF92FF920F931F93D6
:10071000CF93DF93EC0181E0888F9B8D8C8D9813B4
:100720001AC0E889F989808185FF15C09FB7F894C0
:10073000EE89FF896083E889F9898081837080640C
:1007400080839FBF81E090E0DF91CF911F910F9157
:10075000FF90EF900895F62E0B8D10E00F5F1F4F66
:100760000F731127E02E8C8D8E110CC00FB607FC75
:10077000FACFE889F989808185FFF5CFCE010E9403
:100780006203F1CFEB8DEC0FFD2FF11DE35AFF4F0C
:10079000F0829FB7F8940B8FEA89FB898081806291
:1007A000CFCFCF93DF93EC01888D8823B9F0AA894E
:1007B000BB89E889F9898C9185FD03C0808186FD1C
:1007C0000DC00FB607FCF7CF8C9185FFF2CF80816B
:1007D00085FFEDCFCE010E946203E9CFDF91CF917B
:1007E000089580E090E0892B29F00E945803811140
:1007F0000E94000080E090E0892B49F080E090E0CA
:10080000892B29F00E94000081110C9400000895AA
:100810002091A903260F3327331F21323105ECF431
:100820002091CD03FC0190E080E0243069F082E06B
:100830000895A091A9032191AC0147575C4FA40FE3
:10084000B52FB11D2C930196861798F38091A903BB
:10085000680F6093A90380E0089581E008950F93E5
:10086000413208F044C09091CD039111FCCF92E049
:100870009093CD030093CF039FEF9093CC0370939D
:10088000D1036093D0031092D3034093D20310920C
:10089000D4039091D403880F892B8093D403809143
:1008A000CE03813011F51092CE038091D403809352
:1008B000BB008091BC0083FDF8CF85EC8093BC0029
:1008C000222321F08091CD038230D1F38091CC039B
:1008D0008F3F79F08091CC03803269F08091CC0316
:1008E000803359F084E00F91089585EEE7CF81E0E1
:1008F000FACF80E0F8CF82E0F6CF83E0F4CF413248
:10090000E0F59091CD039111FCCF91E09093CD0350
:100910002093CF032FEF2093CC037093D1036093E8
:10092000D0031092D303240F2093D2039093D403C7
:100930009091D403880F892B8093D4038091CE03A8
:100940008130C9F41092CE038091D4038093BB0010
:100950008091BC0083FDF8CF85EC8093BC00809132
:10096000CD038130E1F38091D303841710F44091DB
:10097000D303842F089585EEF0CF40E0FACFE091C5
:10098000B805F091B905309729F01092B50510928D
:10099000B60509940895DC018091BA059091BB05D4
:1009A000892B19F19091B0058091B1059817E8F065
:1009B00090E0292F30E0261737076CF4FD01E20F95
:1009C000F31F4081E091AE05F091AF05E20FF31FF8
:1009D00040839F5FEECF1092B0056093B105E09128
:1009E000BA05F091BB05CB01099408950895DC0187
:1009F0005096EC91509751968C915197E81748F486
:100A00001E968D919C91E80FF92FF11D808190E049
:100A100008958FEF9FEF0895FC01908981892FEF52
:100A20003FEF981740F4A685B785A90FB11D2C910B
:100A300030E09F5F908BC9010895FC018189908906
:100A4000891B990B0895CF92DF92EF92FF920F933B
:100A50001F93CF93DF938C01CB017A01D801579676
:100A60002C915797222389F0EB016B01C40ED51E00
:100A7000CC15DD0579F06991D801ED91FC910190DB
:100A8000F081E02DC8010995F3CF9896ED91FC9186
:100A9000642F0995C701DF91CF911F910F91FF90AE
:100AA000EF90DF90CF900895CF93DF931F92CDB753
:100AB000DEB7FC01698387898823F9F0268984855C
:100AC00095852817190654F081E090E0938382837E
:100AD00090E080E00F90DF91CF9108958981A58902
:100AE00023893489A20FB32FB11D8C9385898F5F21
:100AF000858B868B81E090E0EDCF00A4F1A5E02D01
:100B000061E0CE0101960995F5CF90E080E008956F
:100B1000FC0183858F3F19F061E00C9484010895F6
:100B2000FC0180819181892B39F0A281B3819C9154
:100B300011968C919CBD8DBD83858F3F19F060E02F
:100B40000C9484010895AF92BF92CF92DF92EF92FE
:100B5000FF920F931F93CF93DF93EC0188819981CC
:100B6000892B89F06EBD0DB407FEFDCFBEB48B2D71
:100B7000DF91CF911F910F91FF90EF90DF90CF9079
:100B8000BF90AF9008958885998511E0892B09F071
:100B900010E8AA24A394862F812309F0A12C062F04
:100BA0002C813D814E815F8160E271EA87E090E0B7
:100BB0000E94F921F22EB02EE12CC22ED12CFF2062
:100BC00019F0C6010E944B028A85877F09F042C056
:100BD0008D858F3F89F0902F912381E009F480E08B
:100BE0008A1551F0EF85F8898F89992369F19081F1
:100BF000892B8083AA24A394E989FA898081998D1D
:100C0000892B8083FF2019F0C6010E944B028E853C
:100C10008F3F39F0EB89FC898081988D892309F019
:100C2000E12AE989FA899081898D809589238083D9
:100C30008E858F3F09F0BE2C88859985892BB9F563
:100C4000110F1111BCCF93CF9081809589238083A0
:100C5000A12CD2CFE989FA898081998D892B808353
:100C6000FF2019F0C6010E944B028D858F3F49F08D
:100C7000EF85F8898F89902F9123A9F09081892B96
:100C80008083E989FA899081898D80958923808381
:100C90008E858F3F69F2EB89FC898081988D89234D
:100CA00039F2E12AC5CF908180958923E9CF169545
:100CB000C8CFCF92DF92EF92FF920F931F93CF9303
:100CC000DF938C01EB016A0179010E949005688134
:100CD000C8010E94A305E601EC0CFD1CCE15DF0542
:100CE00031F06FEFC8010E94A3058993F7CFC801C7
:100CF0000E94880581E0DF91CF911F910F91FF90B5
:100D0000EF90DF90CF9008950F931F93CF93DF93D1
:100D1000EC01162F042F0E949005612F6068CE0110
:100D20000E94A305602FCE010E94A305CE01DF9192
:100D3000CF911F910F910C948805CF93DF9300D032
:100D4000CDB7DEB71A82698321E030E0AE014E5F95
:100D50005F4FBE016F5F7F4F0E9459068A810F90DF
:100D60000F90DF91CF9108951F93CF93DF93EC0104
:100D7000162F60E00E949D06482F112341F0406825
:100D800060E0CE01DF91CF911F910C9484064F77E4
:100D9000F7CFCF93DF93EC0160E00E949D06837D47
:100DA000482F426060E0CE01DF91CF910C94840621
:100DB000EF92FF920F931F93CF93DF9300D01F9278
:100DC000CDB7DEB78C010E94C90661E0C8010E9460
:100DD000B4066AE070E080E090E00E947B0260E090
:100DE000C8010E949D06482F406260E0C8010E9431
:100DF000840661E470E080E090E00E947B0219824A
:100E00001A8281E08B8322E030E0AE014F5F5F4FBA
:100E1000BE016D5F7F4FC8010E945906E980FA80CC
:100E2000FE24EF24FE2460E0C8010E94B406C7013E
:100E3000969587950F900F900F90DF91CF911F910E
:100E40000F91FF90EF900895FF920F931F93CF9310
:100E5000DF93EC018B018B858F3F39F061E00E94BD
:100E60001A0261E08B850E94840188819981892B17
:100E700009F46FC0FFB6F89480918803811127C0F0
:100E8000EBE0F2E08491E6E2F2E09491E82FF0E00A
:100E9000EE0FFF1FE751FE4FA591B491EC91E923AE
:100EA00021F461E08AE00E94840161E08AE00E940E
:100EB0001A028CB580618CBD8CB580648CBD61E0FC
:100EC0008DE00E941A0261E08BE00E941A0280917C
:100ED00088038F5F80938803FFBE81E08B8F60E083
:100EE000CE010E949D06482F0130110509F04FC028
:100EF000406160E0CE010E94840660E0CE010E9465
:100F0000B40660E0CE010E949D06482F4F7B60E052
:100F1000CE010E94840640E066E0CE010E94840675
:100F200040E065E0CE010E9484064FEF64E0CE0110
:100F30000E9484064FEF63E0CE010E948406CE013A
:100F40000E94C90681E0DF91CF911F910F91FF9020
:100F5000089561E08C850E941A028A858B7F60E08B
:100F600009F061E08C850E9484018D858F3F39F006
:100F700061E00E941A0261E08D850E9484018E85E5
:100F80008F3F09F4AACF60E00E941A02A6CF4F7EDD
:100F9000B0CF409173042AE031E0429FC001439FEB
:100FA000900D112464E670E00E94E52170938103A6
:100FB000609380038091800390918103281B390BFB
:100FC00030937F0320937E030895CF93DF93EC014A
:100FD00088819981009711F00E94D122198218828C
:100FE0001D821C821B821A82DF91CF910895FC0121
:100FF00080819181009711F00C94D122089560E0D6
:1010000089E10C948401CF93DF93EC0160E00E94AE
:101010009D068171482F446860E0CE010E948406DD
:1010200061E070E080E090E00E947B0267E0CE012A
:10103000DF91CF910C949D06FC0101900020E9F70F
:101040003197AF01481B590BBC018AE794E00C941F
:10105000AE028F929F92AF92BF920F931F93CF9346
:10106000DF93CDB7DEB7A1970FB6F894DEBF0FBE02
:10107000CDBF19A2423008F44AE08E010F5D1F4F28
:10108000842E912CB12CA12CA50194010E94F92150
:10109000E62FB901CA01EA30F4F4E05DD801EE931D
:1010A0008D01232B242B252B79F790E080E01097DE
:1010B00019F0CD010E941C08A1960FB6F894DEBF6E
:1010C0000FBECDBFDF91CF911F910F91BF90AF9019
:1010D0009F908F900895E95CE1CFCF92DF92EF92DD
:1010E000FF92CF93DF936B017C016DE28AE794E07E
:1010F0000E948403EC0166277727CB016C197D09D8
:101100008E099F094AE00E9429088C0F9D1FDF91DC
:10111000CF91FF90EF90DF90CF900895BC01990F91
:10112000880B990B97FD0C946D084AE00C942908E4
:10113000CF93DF930E941C08EC0186E391E00E94AC
:101140001C088C0F9D1FDF91CF91089589E391E0DA
:101150000E9498080E94FF0760E08AE00E948401D4
:1011600061E083E10C948401CF93DF93BC01990F7C
:10117000880B990B97FF0CC00E946D08EC0186E369
:1011800091E00E941C088C0F9D1FDF91CF91089564
:101190004AE00E942908F2CF4F925F926F927F92AD
:1011A0008F929F92AF92BF92CF92DF92EF92FF9277
:1011B0000F931F93CF936B017C01742EAC019B01A5
:1011C0000E94CB21882399F08DE591E0CF911F916A
:1011D0000F91FF90EF90DF90CF90BF90AF909F90D6
:1011E0008F907F906F905F904F900C941C084601F9
:1011F0005701E894B7F82FEF3FEF4FE75FE7C501DE
:10120000B4010E94CB2181110DC02FEF3FEF4FE7BA
:101210005FE7C501B4010E94F31E18161CF481E6B5
:1012200091E0D4CF2FEF3FEF4FE75FE4C701B60166
:101230000E94802118161CF485E691E0C7CF2FEF9D
:101240003FEF4FE75FECC701B6010E94F31E87FD39
:10125000F3CF20E030E0A901C701B6010E94F31EE0
:1012600010E000E087FF0AC06DE28AE794E00E9488
:1012700084038C01F7FAF094F7F8F094C0E060E092
:1012800070E080E09FE37C1641F020E030E040E237
:1012900051E40E94D820CF5FF6CFA70196010E94AB
:1012A0006C202B013C010E9451214B015C014AE062
:1012B0000E9429087C01E00EF11ECC23C1F1C5017A
:1012C000B4010E94F81E9B01AC01C301B2010E944F
:1012D0006B204B015C016EE28AE794E00E9484037C
:1012E000E80EF91EC15018F120E030E040E251E470
:1012F000C501B4010E94591F2B013C010E945121DC
:101300004B01B12CA12C4AE0C501B4010E9429086F
:10131000E80EF91EC501B4010E94F81E9B01AC0144
:10132000C301B2010E946B204B015C01DBCFC701FE
:10133000CF911F910F91FF90EF90DF90CF90BF90D2
:10134000AF909F908F907F906F905F904F90089597
:10135000CF93DF93FC01248135816217730788F4F2
:101360009B01C081D18163E270E0CE01820F931FA7
:101370000E942024009729F08C1B9D0BDF91CF91B8
:1013800008958FEF9FEFFACF4F925F926F927F9207
:101390008F929F92AF92BF92CF92DF92EF92FF9285
:1013A000BC0190E080E00E94F81E20E030E040E0C8
:1013B00058E30E94591F20E030E047ED53E40E94BB
:1013C000591F4B015C012FE63DE646EC52EB0E94B3
:1013D000591F26E133E843E957E30E946C200E943D
:1013E0008B2122E331E140E85BE30E946B202FE791
:1013F00035E04BE955EB0E94D8206B017C0120E0E1
:1014000030E0A9010E94802187FF70C020E030E019
:1014100048EC52E4C501B4010E94D82020E030E03D
:1014200048EC52E40E94591F6B017C012BE532E429
:101430004EE050E40E94591F2FE135E042E753E4AB
:101440000E946B202B013C01A7019601C701B60148
:101450000E94591F4B015C0124E338E749E25BE33A
:101460000E94591FA30192010E946C202B013C0194
:10147000A5019401C701B6010E94591F4B015C01EF
:1014800026E03FEE41EA56E30E94591F9B01AC0162
:10149000C301B2010E946B202B013C01A501940104
:1014A000C701B6010E94591F4B015C0123E137E1DE
:1014B00042EF52E30E94591F9B01AC01C301B201EC
:1014C0000E946B202B013C01A5019401C701B601CC
:1014D0000E94591F2BE339E947E25FE20E94591F3E
:1014E000A30192010E946C206B017C01C701B6012F
:1014F000FF90EF90DF90CF90BF90AF909F908F9034
:101500007F906F905F904F900895CF92DF92EF920F
:10151000FF9284E895E00E94D80684E895E00E9456
:10152000D8060E94C4096B017C0184E895E00E9402
:101530000308882341F084E895E0FF90EF90DF9066
:10154000CF900C94C906C0922705D0922805E0924E
:101550002905F0922A05FF90EF90DF90CF90089533
:10156000FC0180819181009711F00C948D1860E04E
:1015700070E0CB010895FB0144815581FC01248179
:1015800035812417350778F080819181009759F0D3
:10159000FB01608171816115710529F00E943B2476
:1015A00021E0892B09F020E0822F08950F931F93EB
:1015B000CF93DF93EC0188819981009759F02A81BC
:1015C0003B812617370730F081E0DF91CF911F91E3
:1015D0000F9108958B016F5F7F4F0E945A230097F0
:1015E00059F0998388831B830A832C813D81232BA7
:1015F00059F7FC011082E8CF80E0E7CFEF92FF922D
:101600000F931F93CF93DF938C017B01EB01099024
:101610000020E9F72197C61BD70BBE010E94D60A0E
:10162000811109C0C801DF91CF911F910F91FF90E7
:10163000EF900C94E507F801D583C483B70180814E
:101640009181DF91CF911F910F91FF90EF900C94BA
:1016500034249F92AF92BF92CF92DF92EF92FF928B
:101660000F931F93CF93DF93EC016B015A01790124
:101670002417350720F48B2D5901E42EF82E1982FA
:1016800018821B821A821D821C8268E371E0CE01DF
:101690000E94FE0AD60114960D911C91A016B10667
:1016A00058F5E016F10608F48701D601ED91FC919A
:1016B0001197E00FF11F90801082ED90FC90EA0CE2
:1016C000FB1CE114F10471F0F70101900020E9F72F
:1016D00031975F01AE18BF08B501CE010E94D60A4E
:1016E000811117C0CE010E94E507F601808191812A
:1016F000080F191FD8019C92CE01DF91CF911F9145
:101700000F91FF90EF90DF90CF90BF90AF909F90A0
:101710000895BD82AC82B701888199810E943424EA
:10172000E4CF1F920F920FB60F9211242F933F9385
:101730008F939F93AF93BF9380911B0590911C054E
:10174000A0911D05B0911E053091750426E0230F70
:101750002D3768F129E8230F0396A11DB11D2093B1
:10176000750480931B0590931C05A0931D05B093F1
:101770001E058091760490917704A0917804B09131
:1017800079040196A11DB11D80937604909377048E
:10179000A0937804B0937904BF91AF919F918F91FA
:1017A0003F912F910F900FBE0F901F9018950296AA
:1017B000A11DB11DD4CF1F920F920FB60F9211240D
:1017C0002F933F934F935F936F937F938F939F9349
:1017D000AF93BF93EF93FF938AE794E00E94620375
:1017E000FF91EF91BF91AF919F918F917F916F91F9
:1017F0005F914F913F912F910F900FBE0F901F90CF
:1018000018951F920F920FB60F9211242F938F935A
:101810009F93EF93FF93E0918A04F0918B04808172
:10182000E0919004F091910482FD1BC09081809121
:1018300093048F5F8F7320919404821741F0E0919D
:101840009304F0E0E658FB4F958F80939304FF914B
:10185000EF919F918F912F910F900FBE0F901F903E
:1018600018958081F4CF1F920F920FB60F9211241A
:101870002F933F934F935F936F937F938F939F9398
:10188000AF93BF93EF93FF938091B900887F803629
:1018900009F44CC008F03FC0883209F4A8C018F51C
:1018A000803109F49CC0B8F4882309F405C188305C
:1018B00009F495C0FF91EF91BF91AF919F918F91E6
:1018C0007F916F915F914F913F912F910F900FBE3C
:1018D0000F901F901895883109F489C0803251F714
:1018E0008093CC0315C0803409F4A6C048F480333B
:1018F000B9F38833F9F68093CC030E947E01DACFE6
:10190000803509F489C0883509F49EC0883491F681
:101910000E947401CFCF883909F494C038F5883714
:1019200029F050F4883611F0803721F683E0809357
:10193000CD031092CB0357C0883809F483C0803997
:1019400019F0803809F0B6CF8091CB03803208F0CF
:1019500079C0E091CB0381E08E0F8093CB0380911F
:10196000BB00F0E0E555FC4F80833DC0803B39F083
:10197000E0F4803A09F485C0883A09F09BCF84E00E
:101980008093CD031092AA031092A903E091190548
:10199000F0911A0509958091A90381110FC081E08A
:1019A0008093A9031092890309C0803C09F482C086
:1019B000883C09F47FC0883B09F07CCFE091AA0302
:1019C00081E08E0F8093AA03F0E0E757FC4F8081FF
:1019D0008093BB009091AA038091A90331C08091AC
:1019E000D4038093BB0085EC8093BC0063CF9091BF
:1019F000D3038091D2039817B8F58091D0039091CA
:101A0000D103E091D30321E02E0F2093D303E80FFD
:101A1000F92FF11D8081E5CF2091D0033091D103C2
:101A2000E091D30381E08E0F8093D3038091BB00BC
:101A3000E20FF32FF11D80839091D3038091D203A5
:101A4000981788F285E8D0CF2091D0033091D10348
:101A5000E091D30381E08E0F8093D3038091BB008C
:101A6000E20FF32FF11D80838091CF03811150CFBE
:101A700081E08093CE0384EA8093BC001092CD0372
:101A800019CF0E947E018091CB03803230F4E09127
:101A9000CB03F0E0E555FC4F10826091CB0370E082
:101AA000E0911705F09118058BEA93E009951092E3
:101AB000CB0300CF85ECE0CF1092CC0329CF1F924F
:101AC0000F920FB60F9211242F933F934F935F9372
:101AD0006F937F938F939F93AF93BF93EF93FF93F6
:101AE000809185039091860320918703222309F436
:101AF0004DC02091D7033091D8038217930750F03F
:101B000060E088E00E9484011092870310928603AF
:101B1000109285038091850390918603019690939E
:101B200086038093850380918203909183032091A3
:101B300084032223D9F120918003309181038217FD
:101B4000930750F060E084E00E94840110928403C7
:101B500010928303109282038091820390918303F9
:101B600001969093830380938203FF91EF91BF913D
:101B7000AF919F918F917F916F915F914F913F9125
:101B80002F910F900FBE0F901F9018952091D503A5
:101B90003091D6038217930708F4BCCF61E088E048
:101BA0000E94840181E080938703B0CF20917E035F
:101BB00030917F038217930778F261E084E00E94FE
:101BC000840181E080938403C3CFCF93DF93EC0142
:101BD0006B878FEF8E878D878C8787E695E099835B
:101BE00088831B8E82E090E00E94352225E5FC016F
:101BF000208321E021839B838A8380E492E4AFE009
:101C0000B0E08C839D83AE83BF8381E090E09987B1
:101C1000888784E08A87DF91CF9108954F925F9201
:101C20006F927F928F929F92AF92BF92CF92DF92EC
:101C3000EF92FF9210927D0410927C0488EE93E064
:101C4000A0E0B0E080937E0490937F04A093800492
:101C5000B093810426E131E030937B0420937A0431
:101C600025EC30E0309387042093860424EC30E0A8
:101C7000309389042093880420EC30E030938B0467
:101C800020938A0421EC30E030938D0420938C045F
:101C900022EC30E030938F0420938E0426EC30E069
:101CA0003093910420939004109293041092940422
:101CB00010929504109296041092A3051092A2051A
:101CC0008093A4059093A505A093A605B093A705BE
:101CD00088E291E09093A1058093A00580E290E0D6
:101CE0009093AD058093AC050E9435229093AF058B
:101CF0008093AE051092B0051092B1051092B20516
:101D000080E290E00E9435229093B4058093B30561
:101D10001092B5051092B6051092B7058FEE91E0BE
:101D20009093BD058093BC058DE092E09093BF0534
:101D30008093BE0585E591E09093C1058093C00531
:101D400089E591E09093C3058093C2058FE794E005
:101D50009093C5058093C4058FE294E09093C705E6
:101D60008093C60588E094E09093C9058093C805E8
:101D70008CE691E09093CB058093CA0584E791E0CF
:101D80009093CD058093CC058EE791E09093CF059D
:101D90008093CE058BEC94E0909318058093170503
:101DA0008FEB94E090931A058093190562E088E622
:101DB00095E00E94E50D65E084E895E00E94E50D60
:101DC000C0900801D0900901E0900A01F0900B0149
:101DD0008090040190900501A0900601B090070149
:101DE0004090000150900101609002017090030149
:101DF00083E295E090934A058093490587E295E058
:101E000090934805809347058FE195E090934C05AA
:101E100080934B051092650510925D0510925E054A
:101E200010925F051092600580E090E0AFE7B3E4A8
:101E30008093610590936205A0936305B093640558
:101E400084E690E0A0E0B0E08093590590935A05B5
:101E5000A0935B05B0935C05109244051092430576
:101E600020E030E0A901C301B2010E94F31E87FD0A
:101E70005AC020E030E0A901C501B4010E94F31E60
:101E800087FD51C020E030E0A901C701B6010E94E2
:101E9000F31E87FD48C081E090E090934605809353
:101EA00045058093660540922B0550922C05609263
:101EB0002D0570922E0580922F0590923005A092EC
:101EC0003105B0923205C0923305D0923405E092CC
:101ED0003505F092360540923705509238056092EC
:101EE000390570923A052DEC3CEC4CEC5DE3C501F4
:101EF000B4010E94591F60933B0570933C05809389
:101F00003D0590933E052DEC3CEC4CEC5DE3C701A8
:101F1000B6010E94D82060933F05709340058093DE
:101F20004105909342052FB7F89480911B0590913D
:101F30001C05A0911D05B0911E052FBF40915905AC
:101F400050915A0560915B0570915C05841B950B5F
:101F5000A60BB70B80934D0590934E05A0934F05AC
:101F6000B0935005FF90EF90DF90CF90BF90AF906F
:101F70009F908F907F906F905F904F900895CF9338
:101F8000DF93CDB7DEB76F970FB6F894DEBF0FBE05
:101F9000CDBF789484B5836084BD85B5836085BDED
:101FA00080916E00816080936E0092E0909381003A
:101FB00080918100816080938100809180008160A8
:101FC000809380008091B10084608093B100809103
:101FD000B00081608093B000809191008360809315
:101FE0009100809190008160809390008091A10089
:101FF00083608093A1008091A00081608093A00005
:1020000086E880937A001092C100E0918A04F091F2
:102010008B049083E0918604F09187041082E09114
:102020008804F091890487E6808310929204E091FD
:102030008E04F0918F0486E08083E0918C04F0910F
:102040008D04808188698083E0918C04F0918D04F7
:1020500080818F7D808389E691E00E94980870E0FE
:1020600060E088E695E00E94240761E070E084E883
:1020700095E00E94240761E084E00E941A0261E07A
:102080008AE00E941A0261E083E10E941A0261E084
:1020900089E10E941A0261E088E00E941A0261E070
:1020A0008AE10E941A0261E087E10E941A0289E631
:1020B00091E00E9498080E94A6080E94FF0760E035
:1020C00084E00E94840160E088E00E94840161E075
:1020D0008AE10E9484011092740410927304109299
:1020E000F5031092F6031092F7031092F8030E9482
:1020F000850A8091270590912805A0912905B09126
:102100002A0580931F0590932005A0932105B09385
:1021100022051092E5031092E6031092E703109255
:10212000E803809165050091490510914A058111E8
:1021300046C0D801CD90DD90ED90FC90C092510545
:10214000D0925205E0925305F0925405E091470574
:10215000F091480580819181A281B38180935505DA
:1021600090935605A0935705B0935805809061054C
:1021700090906205A0906305B0906405A50194015C
:10218000C701B6010E94802118164CF480925105B7
:1021900090925205A0925305B092540510C08090C1
:1021A0005D0590905E05A0905F05B0906005A5016B
:1021B0009401C701B6010E94F31E87FDE7CF81E0BD
:1021C00080936505C12CD12C28ECE22E22ECF22E56
:1021D000C0925D05D0925E05E0925F05F0926005C9
:1021E000412C512C38EC632E32E4732E4092610561
:1021F000509262056092630570926405F8018080D8
:102200009180A280B380A3019201C501B4010E9414
:10221000802118163CF5D8014D925D926D927C920A
:1022200013978090510590905205A0905305B0905F
:102230005405C0906105D0906205E0906305F09070
:102240006405A7019601C501B4010E9480211816FA
:10225000CCF4C0925105D0925205E0925305F09211
:10226000540520C020E030E048EC52ECC501B40138
:102270000E94F31E87FFD5CFF801C082D182E2828F
:10228000F382CFCFC0905D05D0905E05E0905F05F2
:10229000F0906005A7019601C501B4010E94F31EEC
:1022A00087FDD7CF1092800089E0809381008AE07B
:1022B00091E0909389008093880080916F00826004
:1022C00080936F0088E695E00E94D80688E695E046
:1022D0000E94D8060E94C4096B017C0188E695E043
:1022E0000E940308882309F413C288E695E00E943F
:1022F000C90685E791E00E9498080E94850A8091AE
:102300006505882309F431C18FB7F89420911B0526
:1023100030911C0540911D0550911E052C8F3D8F5D
:102320004E8F5F8F8FBF80914D0590914E05A0918C
:102330004F05B09150054C8D5D8D6E8D7F8D481B86
:10234000590B6A0B7B0B8091590590915A05A0910E
:102350005B05B0915C05481759076A077B0708F4CD
:1023600004C1E0914705F0914805408051806280AA
:102370007380E0914B05F0914C05A30192016081BF
:102380007181828193810E946B206B017C0120917D
:102390005505309156054091570550915805C30198
:1023A000B2010E946B206B8B7C8B8D8B9E8B20915E
:1023B0003B0530913C0540913D0550913E05C701DC
:1023C000B6010E94591F209151053091520540914C
:1023D0005305509154050E946C204B015C01809282
:1023E000510590925205A0925305B0925405309138
:1023F00066053F8B31111CC020913705309138059F
:102400004091390550913A056B897C898D899E8967
:102410000E94591F9B01AC01C501B4010E946B20B1
:102420006093510570935205809353059093540522
:102430008091510590915205A0915305B09154059A
:10244000888F998FAA8FBB8F0091610530906205AC
:102450002090630510916405202F332D422D512FBC
:10246000BC01CD010E94802118160CF05AC1802FAA
:10247000932DA22DB12F8093510590935205A093D7
:102480005305B09354059F89992309F465C12091A0
:102490003705309138054091390550913A05C7010B
:1024A000B6010E94591F6B017C0120913F053091BC
:1024B000400540914105509142056B897C898D8989
:1024C0009E890E94591F9B01AC016091510570913A
:1024D000520580915305909154050E946B20A701ED
:1024E00096010E946C206B017C019B01AC01602F66
:1024F000732D822D912F0E94F31E87FD16C000912F
:102500005D0530905E0520905F0510916005202FDD
:10251000332D422D512FB601C7010E94F31E87FDB6
:1025200004C00C2D3D2C2E2C1F2DE0914905F0915F
:102530004A05802F932DA22DB12F80839183A283F2
:10254000B38340925505509256056092570570929C
:1025500058052C8D3D8D4E8D5F8D20934D0530930C
:102560004E0540934F055093500520911F05309123
:102570002005409121055091220560912705709119
:1025800028058091290590912A050E94802118161E
:10259000CCF420E030E0A90160912305709124057E
:1025A00080912505909126050E948021181654F4EB
:1025B00010922305109224051092250510922605ED
:1025C0000E94FF0720911F053091200540912105B1
:1025D0005091220560912705709128058091290569
:1025E00090912A050E94F31E87FF19C020E030E079
:1025F000A901609123057091240580912505909192
:1026000026050E94F31E87FF0AC010922305109230
:10261000240510922505109226050E94FF0720919F
:102620001F053091200540912105509122056091B0
:102630002705709128058091290590912A050E940F
:102640006B206B017C0120E030E0A9010E94802119
:10265000181624F0F7FAF094F7F8F0942DEC3CEC0F
:102660004CE45EE3C701B6010E94F31E87FF78C009
:1026700060E088E00E94840160E084E00E948401C0
:102680000E94FF071092740434E63093730485EBC4
:1026900091E00E94980864E170E080E090E00E9480
:1026A0007B028AE794E00E944C03181619060CF08E
:1026B00074C21E861D86188A1F861A8A198A68E3C4
:1026C00071E0CE010D960E94FE0A0E94FE0297FD67
:1026D00047C18A30910509F443C189831A82098967
:1026E0001A890F5F1F4FB801CE010D960E94D60ABE
:1026F000882359F32D853E8589899A89BE016F5FAC
:102700007F4F820F931F0E9434241A8B098BDDCFD9
:10271000C0920504D0920604E0920704F0920804E7
:10272000ECCD80905D0590905E05A0905F05B09027
:102730006005A5019401688D798D8A8D9B8D0E941D
:10274000F31E87FFA0CE8092510590925205A09271
:102750005305B092540597CEC12CD12C7601A5CE4D
:10276000C0902305D0902405E0902505F090260523
:1027700020E030E0A901C701B6010E94802187FD59
:10278000A7C020E030E040EA52E4C701B6010E9451
:10279000802118160CF08CC081E891E00E94980806
:1027A0000E94FF0760E08AE00E94840161E083E10B
:1027B0000E94840161E089E10E94840182E38093A8
:1027C00073040E94C907C0902305D0902405E090AF
:1027D0002505F090260520E030E0A901C701B601EB
:1027E0000E94F31E87FD69C020E030E048EC52E40F
:1027F000C701B6010E94802118160CF462C0C701FF
:10280000B6010E94512160937404109273042091C8
:1028100074044AE051E0249FC001259F900D1124CB
:1028200064E670E00E94E5217093D8036093D703BB
:102830008091D7039091D803AAE0B1E0A81BB90B0F
:10284000B093D603A093D50360912305709124051E
:1028500080912505909126050DE614E021E043E0E6
:102860000E946F183091730420917404C8019F93E3
:102870000F931F923F931F922F93E5EAF1E0FF938E
:10288000EF9349EA51E05F934F931F9294E69F9331
:10289000A9E0B4E0BF93AF930E94492489E094E09B
:1028A0000E9498080FB6F894DEBF0FBECDBFEFCEE2
:1028B0000E94A6080E94FF0786CFC12CD12C76016A
:1028C0009ECFC12CD12C98ECE92E92E4F92E97CF13
:1028D00061E089E10E948401C0902305D090240525
:1028E000E0902505F090260520E030E0A901C70121
:1028F000B6010E948021181624F0F7FAF094F7F838
:10290000F09420E030E0A901C701B6010E94F31E57
:1029100087FD1BC020E030E048EC52E4C701B6015F
:102920000E9480211816ACF0A701960160E070E0CB
:1029300088EC92E40E946B200E9451216093730402
:10294000109274040E94C9077FCFC12CD12C76014C
:10295000EBCFC12CD12C88ECE82E82E4F82EE4CF0A
:10296000AD84BE84A114B10439F009891A897501B6
:102970000115110509F098C118861F821A8619865B
:102980001C861B866EEB71E0CE0107960E94FE0A44
:10299000BE01695F7F4FCE010D960E94BB0A10E019
:1029A000882351F11A8219821C821B821E821D8289
:1029B00060EC71E0CE0101960E94FE0A29893A89F5
:1029C0004D815E812417350790F08D859E85009797
:1029D00071F069817A816115710549F0241B350B0D
:1029E000820F931F0E942B2411E0892B09F010E025
:1029F000CE0101960E94F707CE0107960E94F707C5
:102A0000112309F4D4C129893A892150310941E0BF
:102A100050E0BE01635F7F4FCE0101960E94290BFB
:102A20008D859E85009709F477C169817A8161154A
:102A3000710509F46FC14F8558892D813E81421778
:102A4000530708F467C10E9434248D819E819A8BBC
:102A5000898B1E821D82CE0101960E94F70770E0CD
:102A600060E0CE010D960E94A8096C014C01FFEFB9
:102A70008F1A9F0AB401CE010D960E94A8095C012D
:102A80008C010F5F1F4FB801CE010D960E94A8095F
:102A90007C012FEFC216D20609F484C13FEFA316C2
:102AA000B30609F47FC1019609F47CC1960150E098
:102AB00040E0BE01635F7F4FCE0101960E94290B6B
:102AC00089819A81009709F438C10E9491186B019D
:102AD000CE0101960E94F7079501A401BE01635F34
:102AE0007F4FCE0101960E94290BCE0101960E94D4
:102AF000B00A2B013C01CE0101960E94F707970115
:102B0000A801BE01635F7F4FCE0101960E94290B91
:102B100089819A81009709F414C10E9491188B0150
:102B2000CE0101960E94F70729893A89A7014F5FD4
:102B30005F4FBE01635F7F4FCE0101960E94290B5C
:102B400089819A81812C912C5401009719F00E945F
:102B500091184B01CE0101960E94F707C301B20103
:102B60000E944A216C0D7D1D7B01E00EF11E8E142A
:102B70009F0409F4EAC082EC91E00E941C08C401A1
:102B80000E948E088BED91E00E941C08C7010E94F4
:102B9000B408CE010D960E94F7076091050470916C
:102BA000060480910704909108040FEF13E021E0E0
:102BB00043E00E946F18609127057091280580916D
:102BC000290590912A0509EF13E021E043E00E94D6
:102BD0006F186091F5037091F6038091F70390915F
:102BE000F8030FEE13E021E043E00E946F186091BC
:102BF0001F0570912005809121059091220509EE15
:102C000013E021E043E00E946F186091E5037091AA
:102C1000E6038091E7039091E8030FED13E021E0D4
:102C200043E00E946F1809ED13E021E043E060E00B
:102C300070E0CB010E946F188FED93E09F938F930C
:102C400089EE93E09F938F938FEE93E09F938F9302
:102C5000C8019F930F9389EF93E09F938F938FEF1A
:102C600093E09F938F931F9282E08F93AEE4B3E043
:102C7000BF93AF932BE533E03F932F931F9254E61E
:102C80005F9389E094E09F938F930E94492489E0A9
:102C900094E00E9498080E94F1030FB6F894DEBFFA
:102CA0000FBECDBF0FCB760167013FEFC31AD30A2A
:102CB000D7018C91082E000C990B0E942E1E892B97
:102CC00091F7015011090A0D1B1DF8018081082E92
:102CD000000C990B0E942E1E892B31F00E151F053A
:102CE00018F001501109F1CF0F5F1F4FA8014E19C5
:102CF0005F095A8B498BAE14BF0420F4B701C5019C
:102D00000E941724ED85FE8589899A89E80FF91FAD
:102D1000108232CE0E94D12289819A819E878D872E
:102D20008B819C81988B8F878D819E819A8B898BDB
:102D30001A8219821C821B828CCE60E070E0CB016B
:102D4000C6CE60E070E0CB01EACE40921F05509203
:102D500020056092210570922205B801012E000C19
:102D6000880B990B0E94FA1E6093E5037093E603AB
:102D70008093E7039093E80385E092E00E941C08AB
:102D8000C6010E948E0886E292E00E941C0842E082
:102D9000C301B2010E94CC0884E392E00E941C08A7
:102DA000C801F5CE81E492E00E949808F2CE1A8222
:102DB00019821C821B821E821D826EE872E0CE0187
:102DC00001960E94FE0ABE016F5F7F4FCE010D96F5
:102DD0000E94BB0A182FCE0101960E94F70711230B
:102DE00009F453C164E070E0CE010D960E94A80979
:102DF0006C017C015FEFE51AF50AB701CE010D9673
:102E00000E94A8098C018FEFC816D80609F43AC1B0
:102E10000F3F100709F436C1960144E050E0BE01AF
:102E2000635F7F4FCE0101960E94290BCE01019670
:102E30000E94B00A2B013C01CE0101960E94F707C7
:102E40009801A701BE01635F7F4FCE0101960E94EA
:102E5000290BCE0101960E94B00A4B015C01CE0104
:102E600001960E94F70729893A89A8014F5F5F4FB1
:102E7000BE01635F7F4FCE0101960E94290BCE01F8
:102E800001960E94B00A6B017C01CE0101960E945E
:102E9000F707409200015092010160920201709286
:102EA00003018092040190920501A0920601B09264
:102EB0000701C0920801D0920901E0920A01F09244
:102EC0000B0120E030E0A901C301B2010E94F31E12
:102ED00087FDA6C020E030E0A901C501B4010E9431
:102EE000F31E87FD9DC020E030E0A901C701B601B7
:102EF0000E94F31E87FD94C081E02091450530912A
:102F000046052130310509F080E080936605409246
:102F10002B0550922C0560922D0570922E05809203
:102F20002F0590923005A0923105B0923205C092E3
:102F30003305D0923405E0923505F0923605609164
:102F4000590570915A0580915B0590915C050E942E
:102F5000F81E20E030E04AE754E40E94D8206B8B52
:102F60007C8B8D8B9E8B40923705509238056092FA
:102F7000390570923A059B01AC01C501B4010E946C
:102F8000591F4B015C0180923B0590923C05A09239
:102F90003D05B0923E052B893C894D895E89C7016C
:102FA000B6010E94D8206B017C01C0923F05D092EF
:102FB0004005E0924105F0924205809143059091D1
:102FC0004405019769F5A301920160E070E0CB012F
:102FD0000E946B2060933705709338058093390504
:102FE00090933A05A501940160E070E0CB010E9446
:102FF0006B2060933B0570933C0580933D05909357
:103000003E05A701960160E070E0CB010E946B20B5
:1030100060933F057093400580934105909342056E
:1030200083E992E00E941C08609100017091010107
:10303000809102019091030142E00E94CC088FEA46
:1030400092E00E941C08609104017091050180913A
:1030500006019091070142E00E94CC0885EB92E0C6
:103060000E941C08609108017091090180910A0179
:1030700090910B0142E00E94CC0886E391E00E940F
:103080001C0887CD8BEB92E08FCE8FEE92E08CCE3A
:103090008091860590918705009711F00E94D122BA
:1030A00080916A0590916B05009711F00E94D122E2
:1030B00088E291E09093A1058093A0058091AE05F0
:1030C0009091AF05009711F00E94D1228091B30535
:1030D0009091B405009711F00C94D1220895EF92CD
:1030E0000F931F93CF93DF93E80134E047FD34E162
:1030F000042E000C550B57FF03C051954195510903
:10310000E32E022F242FAE010E94A71ACE01DF91D9
:10311000CF911F910F91EF900895662777270C9418
:10312000061C1F93FC0199278827BC01E894119184
:103130001032E9F3193010F01E30C8F31B3251F091
:103140001D3249F4689406C00E94B818610F711DC1
:10315000811D911D119110531A30B0F33EF49095DA
:103160008095709561957F4F8F4F9F4F1F91089568
:10317000592F482F372F262F660F771F881F991F2B
:10318000660F771F881F991F620F731F841F951F7B
:10319000660F771F881F991F0895ABE0B0E0E3ED3D
:1031A000F8E10C9425207C013B018A01FC01178287
:1031B0001682838181FFC8C1CE0101965C01F701AF
:1031C0009381F30193FD859193FF81913F018823C2
:1031D00009F453C1853239F493FD859193FF8191B0
:1031E0003F01853229F4B70190E00E94651EE7CFC8
:1031F000912C212C312CFFE1F31538F08B3211F199
:1032000090F4803209F1833229F137FC3CC020ED83
:10321000280F2A3050F536FE20C08AE0989E200DF7
:103220001124922E06C08D3291F0803371F768948C
:1032300030F8F30193FD859193FF81913F01811156
:10324000DACF21C0689431F8689432F8F2CF6894EC
:1032500033F8EFCF689434F8ECCFEAE02E9E200DDF
:103260001124222E689435F8E4CF8E3229F436FCEE
:1032700004C1689436F8DDCF8C3619F4689437F8B9
:10328000D8CF8836B1F2982F9F7D95549330E0F0D7
:103290008336A1F18337C1F1833509F063C028017A
:1032A000F2E04F0E511CF801C080D180692D70E012
:1032B00036FC02C06FEF7FEFC6010E944F1E4C012B
:1032C000689437F882010AC00C5F1F4FFFE3F9834F
:1032D00088248394912C6501E89437F833FE2DC03F
:1032E000522C8114910471F5552009F468CFB7016F
:1032F00080E290E00E94651E5A94F6CFF80180812A
:1033000089830E5F1F4FE4CF2801F2E04F0E511C5E
:10331000F801C080D180692D70E036FC02C06FEFEB
:103320007FEFC6010E945A1E4C018201D5CFB70122
:1033300080E290E00E94651E2A942814190409F086
:10334000B0F7CECFF60137FC859137FE81916F0142
:10335000B70190E00E94651E51105A94F1E08F1A57
:103360009108BFCF843619F0893609F077C0F8018B
:1033700037FE6BC060817181828193810C5F1F4F2A
:10338000F32DFF763F2E97FF09C09095809570959D
:1033900061957F4F8F4F9F4F689437F82AE030E058
:1033A000A5010E94951EC82ECA188C2C432C36FEEF
:1033B0000CC0E89440F8C91440F434FE05C032FC57
:1033C00003C0F32DFE7E4F2E892C44FE95C0FE01D6
:1033D000EC0DF11D8081803309F087C0242D297EFA
:1033E000422E842D8870582E43FC95C040FE8FC01D
:1033F0009C2C821418F42C0C922C981844FE91C02A
:10340000B70180E390E00E94651E42FE09C088E794
:1034100090E041FE02C088E590E0B7010E94651E81
:10342000C91408F48AC0CA94D12C9FEFC91AD90ACA
:10343000CA0CDB1CF60182916F01B70190E00E947B
:10344000651EAC14BD04B1F74FCF60817181072EAA
:10345000000C880B990B0E5F1F4F92CFD32CE89472
:10346000D4F82AE030E0853739F1232D297FD22E98
:103470008F3601F148F48835A9F0F70186819781EC
:103480002B96E2E10C944120803749F08837A9F768
:10349000D4FE02C06894D2F820E130E00DC06894F8
:1034A000D4F8F6CF34FE03C0822F8660D82E20E1F8
:1034B00032E002C028E030E0F801D7FE0FC06081A2
:1034C0007181828193810C5F1F4FA5010E94951E1F
:1034D000C82ECA183D2CE89437F867CF60817181F7
:1034E00090E080E00E5F1F4FF0CF42FC02C083945B
:1034F00078CF8394839475CF842D867809F471CF27
:10350000F6CFB70180E290E00E94651E839482149A
:10351000C0F3512C73CF522C5818821408F46ECF7C
:10352000F8CF842D867809F47BCF8BE241FE80E2D0
:1035300047FC8DE2B70190E071CFB70180E390E0E6
:103540000E94651E9A946CCF8FEF9FEF99CFA9E0F0
:10355000B0E0EDEAFAE10C942B206A01F22EB02ED5
:10356000102FFBE3AF2EA01608F41BE31F5F012F03
:1035700027E0AE014F5F5F4F0E94561DBC0189815D
:10358000982F9970913009F43FC09BE2E1FC04C090
:103590009E2D9170E0FC3AC05E2D5071E82FE870CE
:1035A00083FF46C084E0911101C083E0EF2DE81B4A
:1035B0008F1508F0E0E0D6018E2F20E2552351F15F
:1035C000992329F0D6019C93C60101966C019601BE
:1035D0002D5F3F4FE2FE24C08EE4D6018C9391E430
:1035E00011969C93119712968C93D9018E2F90E28D
:1035F00081111BC0E20FF32FF11D10828EEF9FEFA0
:103600002996ECE00C9447209DE2C6CF90E2C4CF0F
:103610002D9381508111FCCFCE0ED11CE0E0D0CF94
:103620008EE6D6018C9391E6DBCF9D938150E0CF5F
:10363000482F447082FF3DC084E0911101C083E0B7
:103640008F1510F4EF2DE81BD6018E2F20E25523A5
:1036500009F1992329F0D6019C93C60101966C01CA
:1036600096012D5F3F4FE2FE1BC089E4D6018C938B
:103670008EE411968C93119786E412968C93D9015F
:103680008E2F90E2882309F4B5CF9D938150FACF15
:103690002D9381508111FCCFCE0ED11CE0E0D9CF0B
:1036A00089E6D6018C938EE611968C93119786E667
:1036B000E4CF9B0177FF02C030E020E0A1E0B0E062
:1036C000911102C0B0E0A0E0F9013196AE0FBF1F2A
:1036D0008B2C912CBB2009F461C05401EFEFAE1A82
:1036E000BE0AAA0DBB1DFA161B0619F014F04F2DC9
:1036F0004A1B511188C0E3FC59C07601A42FB0E2E7
:10370000A1114FC0C40ED11C992309F45BC040E045
:10371000D6011196F60190836D01552309F448C036
:10372000012F060F9A81582F507184FF03C09133E7
:1037300009F4015010160CF047C0093008F008E0F9
:10374000EEE2FE2E5B01A01AB108850191948194EE
:1037500091082F3F320729F4D601FC92F6013196E9
:103760006F016217730794F1021713077CF5DB01F1
:10377000A21BB30BAA24A394B12CAC0EBD1EAA0DA0
:10378000BB1D11968C9121503109D6011196281537
:103790003905F4F0F60180836D01DBCFB12CA12C4B
:1037A000A0CFF701B1937F01A150AACF9111B0CF63
:1037B000D601942F50E302C05D9391509111FCCF3C
:1037C000C40ED11C40E0ACCF01E0BACF80E3DBCF28
:1037D0006217730731F4963388F4953311F4552347
:1037E00069F0F6018083FD01842F90E2811108C009
:1037F000A40FB11D1C9290E080E002CF81E3F1CFD5
:1038000091938150F3CF911183CF8ACFB0E0A0E0A4
:10381000ECE0FCE10C942B205C017B01611571054F
:1038200019F0DB018D939C9385010F5F1F4FF5010C
:10383000D0818D2F90E00E942E1E6C01892BB9F54E
:10384000DD32B9F50F5F1F4FD5011196DC91C1E054
:103850005801F1E0AF1AB10843E050E06CEB70E0C2
:10386000C5010E94371E892B69F5680182E0C80EE8
:10387000D11C45E050E067EB70E0C6010E94371EA6
:10388000892B21F4680197E0C90ED11CE114F104E1
:1038900019F0D701CD92DC9260E070E080E89FEFF4
:1038A000C111FFC060E070E080E89FE7FAC05801F6
:1038B000BBCFDB3229F485010E5F1F4FF501D181AB
:1038C000C0E0C6CF43E050E064EB70E0C5010E9469
:1038D000371E892BE9F0F80110E000E020E030E02D
:1038E000A9015F01B0ED8B2E8D0E89E08815C8F11E
:1038F0009C2E689491F88C2F8870C2FF16C081119D
:1039000002C00F5F1F4F3196D501DC91C92DE9CF61
:10391000E114F10429F00E5F1F4FF70111830083BA
:1039200060E070E080EC9FE7BCC0882311F001509C
:103930001109A5E0B0E00E941A209B01AC01220F02
:10394000331F441F551F280D311D411D511D28399E
:1039500099E93907490799E15907A8F2C6609C2EF1
:10396000D2CFAEEF8A1206C0C3FD3CC09C2E689435
:1039700093F8C9CFDF7DD534A9F580818D3239F434
:10398000C061DF011296818162E070E006C0DF0154
:103990008B32C1F3119661E070E080535D01A61A8D
:1039A000B70A8A30F8F4E0E8CE16ECE0DE065CF404
:1039B000B601660F771F660F771FC60ED71ECC0C99
:1039C000DD1CC80ED11C5D01FFEFAF1ABF0A8C9140
:1039D00080538A30A8F1C4FF03C0D194C194D108A8
:1039E0000C0D1D1DC1FF09C0E114F10431F081E08F
:1039F000A81AB108D701AD92BC92CA01B9010E94C0
:103A0000F81EC370C33009F490584B015C0120E0EC
:103A100030E0A9010E94F31E882309F440C0CBEED8
:103A2000D0E017FF05C0119501951109C3EDD0E055
:103A30006E01B8E1CB1AD10880E2E82EF12C0FC05C
:103A4000D501B1CFFE0125913591459154910E19C3
:103A50001F09C501B4010E94591F4B015C01D5012A
:103A6000C4010E151F0574F72497F594E794CC163E
:103A7000DD06A9F78A2F880F8B2F881F8F3F49F00B
:103A800020E030E0A901C501B4010E94F31E8111BC
:103A900006C082E290E09093D1058093D005C501E5
:103AA000B401CDB7DEB7ECE00C944720283008F025
:103AB00027E03327DA01990F311D87FD91600096C9
:103AC0006105710539F432602E5F3D9330E32A952C
:103AD000E1F708959F3F30F080387105610509F0E6
:103AE0003C5F3C5F3D93913008F08068911DDF930F
:103AF000CF931F930F93FF92EF92192F987F969574
:103B0000E92F96959695E90FFF27E75BFE4F9927DA
:103B10003327EE24FF24A701E701059008940794BA
:103B200028F4360FE71EF81E491F511D660F771F38
:103B3000881F991F0694A1F70590079428F4E70EB3
:103B4000F81E491F561FC11D770F881F991F661F3A
:103B50000694A1F70590079428F4F80E491F561F04
:103B6000C71FD11D880F991F661F771F0694A1F7E5
:103B70000590079420F4490F561FC71FD81F990FAF
:103B8000661F771F881F0694A9F7849110951770F8
:103B900041F0D695C79557954795F794E7941A95B0
:103BA000C1F7EFEEF0E068941590159135916591AD
:103BB000959105907FE27395E118F10A430B560B3E
:103BC000C90BD009C0F7E10CF11E431F561FC91FD6
:103BD000D01D7EF4703311F48A95E6CFE89401503D
:103BE00030F0080F0AF40027021708F4202F23955D
:103BF000022F7A3328F079E37D932A95E9F710C0F4
:103C00007D932A9589F6069497956795379517952C
:103C10001794E118F10A430B560BC90BD00998F021
:103C200023957E9173957A3308F070E37C9320138B
:103C3000B8F77E9170617D9330F0839571E37D9349
:103C400070E32A95E1F71124EF90FF900F911F91F7
:103C5000CF91DF91992787FD9095089591110C944C
:103C6000C61F803219F089508550C8F70895FB01AE
:103C7000DC014150504088F08D9181341CF08B352F
:103C80000CF4805E659161341CF06B350CF4605E61
:103C9000861B611171F3990B0895881BFCCFFC0101
:103CA0000590615070400110D8F7809590958E0F67
:103CB0009F1F0895FC016150704001900110D8F7DA
:103CC000809590958E0F9F1F08950F931F93CF930C
:103CD000DF93182F092FEB018B8181FD09C01FEFA6
:103CE0000FEF812F902FDF91CF911F910F910895AA
:103CF00082FF14C02E813F818C819D812817390756
:103D00003CF4E881F981CF0101969983888310837F
:103D10008E819F8101969F838E83E3CFE885F9850D
:103D2000812F0995892BA1F3DACFFA01AA27283030
:103D300051F1203181F1E8946F936E7F6E5F7F4F78
:103D40008F4F9F4FAF4FB1E03ED0B4E03CD0670FF4
:103D5000781F891F9A1FA11D680F791F8A1F911D47
:103D6000A11D6A0F711D811D911DA11D20D009F497
:103D700068943F912AE0269F11243019305D3193D9
:103D8000DEF6CF010895462F4770405D4193B3E0C2
:103D90000FD0C9F7F6CF462F4F70405D4A3318F069
:103DA000495D31FD4052419302D0A9F7EACFB4E01A
:103DB000A6959795879577956795BA95C9F70097D2
:103DC0006105710508959B01AC010A2E0694579573
:103DD000479537952795BA95C9F7620F731F841FCA
:103DE000951FA01D08950E94351F08F481E00895D5
:103DF000E89409C097FB3EF4909580957095619585
:103E00007F4F8F4F9F4F9923A9F0F92F96E9BB273A
:103E10009395F695879577956795B795F111F8CFB6
:103E2000FAF4BB0F11F460FF1BC06F5F7F4F8F4F21
:103E30009F4F16C0882311F096E911C0772321F017
:103E40009EE8872F762F05C0662371F096E8862FAF
:103E500070E060E02AF09A95660F771F881FDAF706
:103E6000880F9695879597F90895990F0008550F33
:103E7000AA0BE0E8FEEF16161706E807F907C0F0F0
:103E800012161306E407F50798F0621B730B840BF8
:103E9000950B39F40A2661F0232B242B252B21F4D2
:103EA00008950A2609F4A140A6958FEF811D811D72
:103EB00008950E946C1F0C94E01F0E94D21F38F0DE
:103EC0000E94D91F20F0952311F00C94C91F0C9467
:103ED000CF1F11240C9414200E94F11F70F3959FA2
:103EE000C1F3950F50E0551F629FF001729FBB27F1
:103EF000F00DB11D639FAA27F00DB11DAA1F649F8D
:103F00006627B00DA11D661F829F2227B00DA11D3F
:103F1000621F739FB00DA11D621F839FA00D611DC5
:103F2000221F749F3327A00D611D231F849F600DE6
:103F3000211D822F762F6A2F11249F5750409AF00F
:103F4000F1F088234AF0EE0FFF1FBB1F661F771F9B
:103F5000881F91505040A9F79E3F510580F00C9466
:103F6000C91F0C9414205F3FE4F3983ED4F3869568
:103F700077956795B795F795E7959F5FC1F7FE2B06
:103F8000880F911D9695879597F908959927882709
:103F9000089597F99F6780E870E060E008959FEFCB
:103FA00080EC089500240A941616170618060906D0
:103FB000089500240A94121613061406050608959F
:103FC000092E0394000C11F4882352F0BB0F40F427
:103FD000BF2B11F460FF04C06F5F7F4F8F4F9F4F67
:103FE000089557FD9058440F551F59F05F3F71F0E9
:103FF0004795880F97FB991F61F09F3F79F0879550
:104000000895121613061406551FF2CF4695F1DFD8
:1040100008C0161617061806991FF1CF8695710568
:10402000610508940895E894BB2766277727CB019C
:1040300097F908950E945C20A59F900DB49F900D64
:10404000A49F800D911D112408952F923F924F92AD
:104050005F926F927F928F929F92AF92BF92CF9218
:10406000DF92EF92FF920F931F93CF93DF93CDB721
:10407000DEB7CA1BDB0B0FB6F894DEBF0FBECDBF99
:1040800009942A88398848885F846E847D848C846A
:104090009B84AA84B984C884DF80EE80FD800C8173
:1040A0001B81AA81B981CE0FD11D0FB6F894DEBF56
:1040B0000FBECDBFED010895A29FB001B39FC00117
:1040C000A39F700D811D1124911DB29F700D811D44
:1040D0001124911D08955058BB27AA270E948320C0
:1040E0000C94E01F0E94D21F38F00E94D91F20F0CC
:1040F00039F49F3F19F426F40C94CF1F0EF4E09589
:10410000E7FB0C94C91FE92F0E94F11F58F3BA175F
:10411000620773078407950720F079F4A6F50C94DD
:1041200013200EF4E0950B2EBA2FA02D0B01B90130
:1041300090010C01CA01A0011124FF27591B99F01D
:10414000593F50F4503E68F11A16F040A22F232F29
:10415000342F4427585FF3CF469537952795A79579
:10416000F0405395C9F77EF41F16BA0B620B730B20
:10417000840BBAF09150A1F0FF0FBB1F661F771F91
:10418000881FC2F70EC0BA0F621F731F841F48F446
:10419000879577956795B795F7959E3F08F0B0CFCF
:1041A0009395880F08F09927EE0F979587950895B6
:1041B0000E94EC200C94E01F0E94D91F58F00E942E
:1041C000D21F40F029F45F3F29F00C94C91F511110
:1041D0000C9414200C94CF1F0E94F11F68F39923B4
:1041E000B1F3552391F3951B550BBB27AA276217F3
:1041F0007307840738F09F5F5F4F220F331F441F00
:10420000AA1FA9F335D00E2E3AF0E0E832D0915033
:104210005040E695001CCAF72BD0FE2F29D0660F20
:10422000771F881FBB1F261737074807AB07B0E863
:1042300009F0BB0B802DBF01FF2793585F4F3AF069
:104240009E3F510578F00C94C91F0C9414205F3FD9
:10425000E4F3983ED4F3869577956795B795F795EF
:104260009F5FC9F7880F911D9695879597F90895D7
:10427000E1E0660F771F881FBB1F62177307840773
:10428000BA0720F0621B730B840BBA0BEE1F88F782
:10429000E09508950E9451216894B1110C94142066
:1042A00008950E94F91F88F09F5798F0B92F992719
:1042B000B751B0F0E1F0660F771F881F991F1AF011
:1042C000BA95C9F714C0B13091F00E941320B1E043
:1042D00008950C941320672F782F8827B85F39F042
:1042E000B93FCCF3869577956795B395D9F73EF4AA
:1042F00090958095709561957F4F8F4F9F4F089552
:104300000E94351F08F48FEF089519F416F40C94E9
:10431000CF1F0C94D0210E94F91FB8F39923C9F341
:10432000B6F39F57550B87FF0E94DE210024A0E6BD
:1043300040EA900180585695979528F4805C660F66
:10434000771F881F20F026173707480730F4621BB5
:10435000730B840B202931294A2BA69517940794B7
:10436000202531254A2758F7660F771F881F20F030
:1043700026173707480730F4620B730B840B200DA8
:10438000311D411DA09581F7B901842F9158880FE7
:104390009695879508950E94351F880B990B08956F
:1043A0009F3F31F0915020F4879577956795B795A9
:1043B000880F911D9695879597F9089591505040D3
:1043C000660F771F881FD2F7089597FB072E16F404
:1043D000009407D077FD09D00E94212207FC05D068
:1043E0003EF4909581959F4F0895709561957F4F0C
:1043F0000895A1E21A2EAA1BBB1BFD010DC0AA1F26
:10440000BB1FEE1FFF1FA217B307E407F50720F03D
:10441000A21BB30BE40BF50B661F771F881F991FB8
:104420001A9469F760957095809590959B01AC0101
:10443000BD01CF010895EE0FFF1F0590F491E02D0F
:104440000994AA1BBB1B51E107C0AA1FBB1FA617DB
:10445000B70710F0A61BB70B881F991F5A95A9F72D
:1044600080959095BC01CD0108950F931F93CF9334
:10447000DF938230910510F482E090E0E091D40562
:10448000F091D50530E020E0B0E0A0E0309799F45D
:104490002115310509F44AC0281B390B2430310598
:1044A000D8F58A819B816115710589F1FB019383A0
:1044B0008283FE0111C0408151810281138148171E
:1044C0005907E0F04817590799F4109761F01296D0
:1044D0000C93129713961C933296CF01DF91CF91D4
:1044E0001F910F9108950093D4051093D505F4CF33
:1044F0002115310551F04217530738F0A901DB01AE
:104500009A01BD01DF01F801C1CFEF01F9CF90930E
:10451000D5058093D405CDCFFE01E20FF31F819323
:1045200091932250310939832883D7CF2091D20526
:104530003091D305232B41F420910E0130910F01CE
:104540003093D3052093D20520910C0130910D01B9
:104550002115310541F42DB73EB74091100150911E
:104560001101241B350BE091D205F091D305E21720
:10457000F307A0F42E1B3F0B2817390778F0AC0186
:104580004E5F5F4F2417350748F04E0F5F1F509363
:10459000D3054093D205819391939FCFF0E0E0E063
:1045A0009CCFCF93DF930097E9F0FC013297138201
:1045B0001282A091D405B091D505ED0130E020E044
:1045C0001097A1F420813181820F931F2091D20591
:1045D0003091D3052817390709F061C0F093D3054E
:1045E000E093D205DF91CF910895EA01CE17DF075E
:1045F000E8F54A815B819E0141155105B1F7E9015A
:10460000FB83EA8349915991C40FD51FEC17FD072D
:1046100061F4808191810296840F951FE90199834D
:104620008883828193819B838A83F0E0E0E0129605
:104630008D919C9113970097B9F52D913C9111970D
:10464000CD010296820F931F2091D2053091D305A0
:104650002817390739F6309751F51092D505109281
:10466000D405B093D305A093D205BCCFD383C28326
:1046700040815181840F951FC817D90761F44E5F9F
:104680005F4F88819981480F591F518340838A81E8
:104690009B81938382832115310509F0B0CFF0937C
:1046A000D505E093D4059ECFFD01DC01C0CF138278
:1046B0001282D7CFB0E0A0E0E0E6F3E20C9427202E
:1046C0008C01009751F4CB010E9435228C01C80166
:1046D000CDB7DEB7E0E10C944320FC01E60FF71FF5
:1046E0009C0122503109E217F30708F49DC0D9015B
:1046F000CD91DC911197C617D70798F0C530D10539
:1047000030F3CE0104978617970708F3C61BD70B23
:104710002297C193D1936D937C93CF010E94D122B4
:10472000D6CF5B01AC1ABD0A4C018C0E9D1EA09128
:10473000D405B091D505512C412CF12CE12C1097CA
:1047400031F58091D2059091D3058815990509F02E
:104750005CC04616570608F058C080910C01909135
:104760000D01009741F48DB79EB740911001509113
:104770001101841B950BE817F90708F055C0F09359
:10478000D305E093D205F90171836083A0CF8D91A9
:104790009C91119712966C90129713967C90139798
:1047A000A815B90559F56C0142E0C40ED11CCA1414
:1047B000DB0420F1AC014A195B09DA011296159766
:1047C00080F06282738251834083D9016D937C9320
:1047D000E114F10471F0D7011396FC93EE93129754
:1047E00076CF22968C0F9D1FF90191838083F30170
:1047F000EFCFF093D505E093D40569CF481659065D
:1048000008F42C017D01D3019ACFCB010E943522FF
:104810007C01009749F0AE01B8010E941724C8013D
:104820000E94D122870153CF10E000E050CFFB015E
:10483000DC0102C001900D9241505040D8F708951C
:10484000FC018191861721F08823D9F799270895D3
:104850003197CF010895FB01DC018D910190801902
:104860000110D9F3990B0895FB01DC0101900D9221
:104870000020E1F70895FB01DC014150504030F089
:104880008D910190801919F40020B9F7881B990BBC
:104890000895AEE0B0E0EFE4F4E20C9433200D892B
:1048A0001E898F89988D26E02C831A83098397FFB0
:1048B00002C080E090E801979E838D83AE01455E43
:1048C0005F4F698D7A8DCE0101960E94CD184D8182
:1048D0005E8157FD0AC02F813885421753070CF4BB
:1048E0009A01020F131FF80110822E96E4E00C9437
:1048F0004F2011E0CAE2D1E004C0FE010E941B2259
:0C4900002196CB32D107C9F7F894FFCF05
:10490C000000A040000000400000803F0000D605E1
:10491C008000000000008403AE02DB02D1034C03D4
:10492C00EA023E0300000000540523058505F60449
:10493C001D050C05F7040D0A0050656C7469657251
:10494C0020697320676F696E6720696E20436F6FF3
:10495C006C696E67206D6F64652E2E2E006E616E15
:10496C0000696E66006F7666005374617274696ECE
:10497C00672E2E2E00696E6E657220666F756C74D4
:10498C000050656C7469657220697320676F696E7D
:10499C006720696E2048656174696E67206D6F646D
:1049AC00652E2E2E00706964002573232564232543
:1049BC006423257300474F474F474F474F003E0036
:1049CC003C004375727275707420646174612E20A2
:1049DC00636865636B73756D3A20002020706F738C
:1049EC006974696F6E4964782B28696E74297461D7
:1049FC007267657454656D702B746172676574525F
:104A0C00504D3A2000557064617465642050617299
:104A1C00616D65746572733A20706F736974696F38
:104A2C006E4964783D002C2074617267657454651E
:104A3C006D703D002C2074617267657452504D3D51
:104A4C00004572726F723A20496E76616C6964200F
:104A5C00696E70757420666F726D61742E2055735B
:104A6C006520273E63656C6C494423706F736974D1
:104A7C00696F6E4964782374617267657454656DEF
:104A8C00702374617267657452504D3C27007069D5
:104A9C00642300557064617465642050494420504F
:104AAC006172616D65746572733A206B703D002C98
:104ABC00206B693D002C206B643D004572726F7257
:104ACC003A20496E76616C69642050494420696EC5
:104ADC0070757420666F726D61742E20557365202D
:104AEC0027706964236B70236B69236B6427004503
:104AFC0072726F723A20496E76616C696420696ECD
:104B0C0070757420666F726D61742E2055736520FC
:104B1C00273E63656C6C494423706F736974696FCD
:104B2C006E4964782374617267657454656D702383
:104B3C0074617267657452504D3C27206F72202748
:104B4C00706964236B70236B69236B64270062624A
:104B5C003030237332355F353535002573232564AA
:104B6C00232573232573232573232573232573236F
:044B7C00257300009D
:00000001FF
